:020000040800F2
:1000000000500020B1440008094300080F430008D5
:10001000154300081B4300082143000800000000AE
:10002000000000000000000000000000313D00085A
:100030002743000800000000113F0008293600088F
:10004000F9440008F9440008F9440008F94400089C
:10005000F9440008F9440008F9440008F94400088C
:10006000F9440008F9440008F9440008F94400087C
:10007000F9440008F9440008F9440008F94400086C
:10008000F9440008F9440008F9440008F94400085C
:10009000F9440008F9440008F9440008F94400084C
:1000A000F9440008F9440008F9440008F94400083C
:1000B00035430008F9440008F9440008F9440008F1
:1000C000F9440008F9440008F9440008F94400081C
:1000D000F9440008F9440008F9440008F94400080C
:1000E000F9440008F9440008F94400080000000041
:1000F0000000000000000000000000000000000000
:0C01000000000000000000005FF808F1A3
:1001100010B5054C237833B9044B13B10448AFF341
:1001200000800123237010BD10000020000000009B
:100130007045000808B5034B1BB103490348AFF3F2
:10014000008008BD00000000140000207045000879
:1001500080B400AF00BFBD4680BC704780B582B0A0
:1001600000AF78607B68002B01D1012341E07B6800
:1001700093F83D30DBB2002B06D17B68002283F878
:100180003C20786800F039F87B68022283F83D2033
:100190007B681A687B6804331946104600F09CF9A6
:1001A0007B68012283F846207B68012283F83E2089
:1001B0007B68012283F83F207B68012283F840207E
:1001C0007B68012283F841207B68012283F842206A
:1001D0007B68012283F843207B68012283F8442056
:1001E0007B68012283F845207B68012283F83D204B
:1001F000002318460837BD4680BD80B483B000AFE9
:10020000786000BF0C37BD4680BC704780B485B0B5
:1002100000AF78607B6893F83D30DBB2012B01D0F2
:1002200001233AE07B68022283F83D207B681B684B
:10023000DA687B681B6842F00102DA607B681B6841
:10024000184A93420ED07B681B68B3F1804F09D0E7
:100250007B681B68144A934204D07B681B68134A6E
:10026000934211D17B681B689B6803F00703FB6016
:10027000FB68062B10D07B681B681A687B681B68BC
:1002800042F001021A6007E07B681B681A687B680D
:100290001B6842F001021A60002318461437BD465D
:1002A00080BC7047002C0140000400400008004062
:1002B00080B584B000AF78607B681B68DB68FB604A
:1002C0007B681B681B69BB60BB6803F00203002BE3
:1002D00020D0FB6803F00203002B1BD07B681B6857
:1002E0006FF002021A617B6801221A777B681B6833
:1002F0009B6903F00303002B03D0786800F0D1F86A
:1003000005E0786800F0C4F8786800F0D3F87B68FE
:1003100000221A77BB6803F00403002B20D0FB688F
:1003200003F00403002B1BD07B681B686FF00402F2
:100330001A617B6802221A777B681B689B6903F449
:100340004073002B03D0786800F0ABF805E07868C4
:1003500000F09EF8786800F0ADF87B6800221A770C
:10036000BB6803F00803002B20D0FB6803F00803F0
:10037000002B1BD07B681B686FF008021A617B683A
:1003800004221A777B681B68DB6903F00303002BE8
:1003900003D0786800F085F805E0786800F078F818
:1003A000786800F087F87B6800221A77BB6803F052
:1003B0001003002B20D0FB6803F01003002B1BD090
:1003C0007B681B686FF010021A617B6808221A773D
:1003D0007B681B68DB6903F44073002B03D07868EB
:1003E00000F05FF805E0786800F052F8786800F0F7
:1003F00061F87B6800221A77BB6803F00103002BC9
:100400000CD0FB6803F00103002B07D07B681B684E
:100410006FF001021A61786803F076FEBB6803F0A2
:100420008003002B0CD0FB6803F08003002B07D067
:100430007B681B686FF080021A61786800F0C3F86F
:10044000BB6803F04003002B0CD0FB6803F04003B3
:10045000002B07D07B681B686FF040021A61786838
:1004600000F031F8BB6803F02003002B0CD0FB68D0
:1004700003F02003002B07D07B681B686FF020027D
:100480001A61786800F096F800BF1037BD4680BD4D
:1004900080B483B000AF786000BF0C37BD4680BC2D
:1004A000704780B483B000AF786000BF0C37BD46A2
:1004B00080BC704780B483B000AF786000BF0C3759
:1004C000BD4680BC704780B483B000AF786000BF89
:1004D0000C37BD4680BC704780B485B000AF7860F3
:1004E00039607B681B68FB607B682F4A93420BD0A6
:1004F0007B68B3F1804F07D07B682C4A934203D0CE
:100500007B682B4A934208D1FB6823F07003FB60A1
:100510003B685B68FA681343FB607B68224A93423E
:100520000BD07B68B3F1804F07D07B681F4A9342A2
:1005300003D07B681E4A934208D1FB6823F44073C2
:10054000FB603B68DB68FA681343FB60FB6823F0E1
:1005500080023B685B691343FB607B68FA681A6042
:100560003B689A687B68DA623B681A687B689A62C3
:100570007B680D4A934203D13B681A697B681A6312
:100580007B6801225A617B681B6903F00103002B21
:1005900005D07B681B6923F001027B681A6100BFEC
:1005A0001437BD4680BC7047002C01400004004059
:1005B0000008004080B483B000AF786000BF0C3703
:1005C000BD4680BC704780B483B000AF786000BF88
:1005D0000C37BD4680BC704780B500AF084B1B6828
:1005E000074A43F010031360032000F099FE0F2028
:1005F00003F0E2FE03F0A8FE0023184680BD00BF12
:100600000020024080B400AF054B1B781A46054B12
:100610001B681344034A136000BFBD4680BC70478B
:10062000080000202C00002080B400AF024B1B68A3
:100630001846BD4680BC70472C00002080B586B0AF
:1006400000AF78607B68002B01D1012372E27B68E8
:100650001B6803F00103002B00F08780924B5B685E
:1006600003F00C03042B0CD08F4B5B6803F00C03DE
:10067000082B12D18C4B5B6803F48033B3F5803FB9
:100680000BD1894B1B6803F40033002B6CD07B68C3
:100690005B68002B68D101234CE27B685B68B3F593
:1006A000803F06D1804B1B687F4A43F48033136040
:1006B0002EE07B685B68002B0CD17B4B1B687A4A71
:1006C00023F480331360784B1B68774A23F480232C
:1006D00013601DE07B685B68B3F5A02F0CD1724BF3
:1006E0001B68714A43F4802313606F4B1B686E4A8A
:1006F00043F4803313600BE06B4B1B686A4A23F4AE
:1007000080331360684B1B68674A23F480231360AF
:100710007B685B68002B13D0FFF786FF386108E029
:10072000FFF782FF02463B69D31A642B01D90323EA
:1007300000E25D4B1B6803F40033002BF0D014E0A3
:10074000FFF772FF386108E0FFF76EFF02463B6972
:10075000D31A642B01D90323ECE1534B1B6803F438
:100760000033002BF0D100E000BF7B681B6803F072
:100770000203002B63D04C4B5B6803F00C03002B8F
:100780000BD0494B5B6803F00C03082B1CD1464B84
:100790005B6803F48033002B16D1434B1B6803F0D6
:1007A0000203002B05D07B681B69012B01D00123BC
:1007B000C0E13D4B1B6823F0F8027B685B69DB00FE
:1007C000394913430B603AE07B681B69002B20D04A
:1007D000364B01221A60FFF727FF386108E0FFF768
:1007E00023FF02463B69D31A022B01D90323A1E15F
:1007F0002D4B1B6803F00203002BF0D02A4B1B6823
:1008000023F0F8027B685B69DB00274913430B6028
:1008100015E0264B00221A60FFF706FF386108E05A
:10082000FFF702FF02463B69D31A022B01D90323CB
:1008300080E11D4B1B6803F00203002BF0D17B68A5
:100840001B6803F00803002B3AD07B689B69002BE0
:1008500019D0174B01221A60FFF7E6FE386108E055
:10086000FFF7E2FE02463B69D31A022B01D90323AC
:1008700060E10D4B5B6A03F00203002BF0D0012016
:1008800000F0EAFA1CE00A4B00221A60FFF7CCFEE7
:1008900038610FE0FFF7C8FE02463B69D31A022B0E
:1008A00008D9032346E100BF001002400000424285
:1008B00080044242924B5B6A03F00203002BE9D1B1
:1008C0007B681B6803F00403002B00F0A680002364
:1008D000FB758B4BDB6903F08053002B0DD1884BEC
:1008E000DB69874A43F08053D361854BDB6903F0B2
:1008F0008053BB60BB680123FB75824B1B6803F40C
:100900008073002B18D17F4B1B687E4A43F48073A1
:100910001360FFF789FE386108E0FFF785FE0246A5
:100920003B69D31A642B01D9032303E1754B1B6880
:1009300003F48073002BF0D07B68DB68012B06D1B9
:100940006F4B1B6A6E4A43F0010313622DE07B6814
:10095000DB68002B0CD16A4B1B6A694A23F0010348
:100960001362674B1B6A664A23F0040313621CE0A0
:100970007B68DB68052B0CD1614B1B6A604A43F036
:10098000040313625E4B1B6A5D4A43F0010313626A
:100990000BE05B4B1B6A5A4A23F001031362584B6E
:1009A0001B6A574A23F0040313627B68DB68002B41
:1009B00015D0FFF739FE38610AE0FFF735FE024631
:1009C0003B69D31A41F28832934201D90323B1E043
:1009D0004B4B1B6A03F00203002BEED014E0FFF731
:1009E00023FE38610AE0FFF71FFE02463B69D31A77
:1009F00041F28832934201D903239BE0404B1B6AAA
:100A000003F00203002BEED1FB7D012B05D13C4B03
:100A1000DB693B4A23F08053D3617B68DB69002BA1
:100A200000F08780364B5B6803F00C03082B61D025
:100A30007B68DB69022B46D1334B00221A60FFF73B
:100A4000F3FD386108E0FFF7EFFD02463B69D31A7A
:100A5000022B01D903236DE0294B1B6803F00073BF
:100A6000002BF0D17B681B6AB3F5803F08D1244B83
:100A70005B6823F400327B689B68214913434B6019
:100A80001F4B5B6823F474127B68196A7B685B6A8E
:100A90000B431B4913434B601B4B01221A60FFF7AA
:100AA000C3FD386108E0FFF7BFFD02463B69D31A7A
:100AB000022B01D903233DE0114B1B6803F00073A7
:100AC000002BF0D035E0104B00221A60FFF7ACFD90
:100AD000386108E0FFF7A8FD02463B69D31A022BF4
:100AE00001D9032326E0064B1B6803F00073002B9B
:100AF000F0D11EE07B68DB69012B07D1012319E0EF
:100B00000010024000700040600042420B4B5B68E6
:100B1000FB60FB6803F480327B681B6A9A4206D153
:100B2000FB6803F470127B685B6A9A4201D0012370
:100B300000E0002318461837BD4680BD0010024073
:100B400080B584B000AF786039607B68002B01D13C
:100B50000123D0E06A4B1B6803F007033A689A420E
:100B600010D9674B1B6823F0070265493B681343A4
:100B70000B60634B1B6803F007033A689A4201D08D
:100B80000123B8E07B681B6803F00203002B20D030
:100B90007B681B6803F00403002B05D0594B5B688E
:100BA000584A43F4E06353607B681B6803F0080312
:100BB000002B05D0534B5B68524A43F4605353609B
:100BC000504B5B6823F0F0027B689B684D491343F0
:100BD0004B607B681B6803F00103002B40D07B68EF
:100BE0005B68012B07D1474B1B6803F40033002BD4
:100BF00015D101237FE07B685B68022B07D1414B55
:100C00001B6803F00073002B09D1012373E03D4BF7
:100C10001B6803F00203002B01D101236BE0394B69
:100C20005B6823F003027B685B68364913434B60C3
:100C3000FFF7FAFCF8600AE0FFF7F6FC0246FB68F3
:100C4000D31A41F28832934201D9032353E02D4B4A
:100C50005B6803F00C027B685B689B009A42EBD1F7
:100C6000274B1B6803F007033A689A4210D2244BC3
:100C70001B6823F0070222493B6813430B60204B9B
:100C80001B6803F007033A689A4201D0012332E05F
:100C90007B681B6803F00403002B08D0194B5B68CA
:100CA00023F4E0627B68DB68164913434B607B6882
:100CB0001B6803F00803002B09D0124B5B6823F478
:100CC00060527B681B69DB000E4913434B6000F0E8
:100CD00021F802460B4B5B681B0903F00F030A491E
:100CE000CB5C22FA03F3094A1360094B1B681846D0
:100CF00003F062FB002318461037BD4680BD00BFDD
:100D00000020024000100240AC4500080000002016
:100D10000400002080B487B000AF0023FB600023F4
:100D2000BB6000237B6100237B6000233B611E4B83
:100D30005B68FB60FB6803F00C03042B02D0082BFC
:100D400003D027E0194B3B6127E0FB689B0C03F0C5
:100D50000F03174AD35C7B60FB6803F48033002BDE
:100D600010D0114B5B685B0C03F00103114AD35C9C
:100D7000BB607B680D4A03FB02F2BB68B2FBF3F376
:100D80007B6104E07B680C4A02FB03F37B617B69B7
:100D90003B6102E0054B3B6100BF3B6918461C37D5
:100DA000BD4680BC704700BF0010024000127A00B0
:100DB000C4450008D445000800093D0080B400AFD8
:100DC000024B1B681846BD4680BC704700000020DF
:100DD00080B500AFFFF7F2FF0246054B5B681B0AC8
:100DE00003F007030349CB5C22FA03F3184680BDE6
:100DF00000100240BC45000880B483B000AF7860AA
:100E000039607B680F221A60114B5B6803F00302A4
:100E10007B685A600E4B5B6803F0F0027B689A6057
:100E20000B4B5B6803F4E0627B68DA60084B5B683D
:100E3000DB0803F4E0627B681A61064B1B6803F071
:100E400007023B681A6000BF0C37BD4680BC704784
:100E5000001002400020024080B485B000AF7860EE
:100E60000A4B1B680A4AA2FB03235B0A7A6802FB4F
:100E700003F3FB6000BFFB685A1EFA60002BF9D138
:100E800000BF00BF1437BD4680BC70470000002083
:100E9000D34D621080B48BB000AF7860396000230E
:100EA0007B6200233B6269E101227B6A02FA03F361
:100EB000FB613B681B68FA691340BB61BA69FB6957
:100EC0009A4240F058813B685B689A4A93425ED0F0
:100ED000984A934275D8984A934258D0964A93427A
:100EE0006FD8964A934252D0944A934269D8944A12
:100EF00093424CD0924A934263D8924A934246D04E
:100F0000904A93425DD8122B2AD8122B59D801A2AD
:100F100052F823F08F0F0008690F00087B0F0008BC
:100F2000BD0F0008C30F0008C30F0008C30F00085F
:100F3000C30F0008C30F0008C30F0008C30F000849
:100F4000C30F0008C30F0008C30F0008C30F000839
:100F5000C30F0008C30F0008710F0008850F0008B9
:100F6000794A934213D02CE03B68DB683B6229E06E
:100F70003B68DB6804333B6224E03B68DB68083392
:100F80003B621FE03B68DB680C333B621AE03B6866
:100F90009B68002B02D104233B6213E03B689B68F3
:100FA000012B05D108233B627B68FA691A6109E0CD
:100FB00008233B627B68FA695A6103E000233B62C5
:100FC00000E000BFBB69FF2B01D87B6801E07B68B4
:100FD00004337B61BB69FF2B02D87B6A9B0002E074
:100FE0007B6A083B9B003B617B691A680F213B6968
:100FF00001FA03F3DB431A40396A3B6901FA03F350
:101000001A437B691A603B685B6803F08053002BCE
:1010100000F0B1804D4B9B694C4A43F00103936152
:101020004A4B9B6903F00103BB60BB68484A7B6A7B
:101030009B08023352F82330FB607B6A03F0030302
:101040009B000F2202FA03F3DB43FA681340FB60B4
:101050007B68404A934213D07B683F4A93420DD04D
:101060007B683E4A934207D07B683D4A934201D158
:10107000032306E0042304E0022302E0012300E04E
:1010800000237A6A02F0030292009340FA68134345
:10109000FB602F497B6A9B080233FA6841F82320E2
:1010A0003B685B6803F48013002B06D02D4B9A68D5
:1010B0002C49BB6913438B6006E02A4B9A68BB69D5
:1010C000DB43284913408B603B685B6803F40013E3
:1010D000002B06D0234BDA682249BB691343CB604F
:1010E00006E0204BDA68BB69DB431E491340CB6046
:1010F0003B685B6803F40033002B06D0194B5A6839
:101100001849BB6913434B6006E0164B5A68BB692C
:10111000DB43144913404B603B685B6803F4803346
:10112000002B21D00F4B1A680E49BB6913430B608B
:1011300021E000BF0000321000003110000022103A
:1011400000002110000012100000111000100240D9
:101150000000014000080140000C01400010014067
:1011600000140140000401400B4B1A68BB69DB43CB
:10117000094913400B607B6A01337B623B681A6844
:101180007B6A22FA03F3002B7FF48EAE00BF00BF10
:101190002C37BD4680BC70470004014080B483B04A
:1011A00000AF78600B467B8013467B707B78002B0A
:1011B00003D07A887B681A6103E07B881A047B6815
:1011C0001A6100BF0C37BD4680BC704780B485B043
:1011D00000AF78607B6803F00703FB600C4BDB68B3
:1011E000BB60BA684FF6FF031340BB60FB681A028E
:1011F000BB68134343F0BF6343F40033BB60044A4E
:10120000BB68D36000BF1437BD4680BC704700BFC9
:1012100000ED00E080B400AF044BDB681B0A03F074
:1012200007031846BD4680BC704700BF00ED00E0D4
:1012300080B483B000AF0346FB7197F90730002BF1
:101240000BDBFB7903F01F02064997F907305B09B6
:10125000012000FA02F241F8232000BF0C37BD46FE
:1012600080BC704700E100E080B483B000AF03466B
:101270003960FB7197F90730002B0ADB3B68DAB263
:101280000C4997F907301201D2B20B4483F80023BE
:101290000AE03B68DAB20849FB7903F00F03043B2C
:1012A0001201D2B20B441A7600BF0C37BD4680BC87
:1012B000704700BF00E100E000ED00E080B489B0BD
:1012C00000AFF860B9607A60FB6803F00703FB6168
:1012D000FB69C3F10703042B28BF0423BB61FB692F
:1012E0000433062B02D9FB69033B00E000237B613A
:1012F0004FF0FF32BB6902FA03F3DA43BB681A40CE
:101300007B699A404FF0FF317B6901FA03F3D943BF
:101310007B680B40134318462437BD4680BC70479A
:1013200080B582B000AF78607868FFF74FFF00BFEC
:101330000837BD4680BD80B586B000AF0346B960B2
:101340007A60FB7300237B61FFF764FF78617A6842
:10135000B9687869FFF7B2FF024697F90F30114676
:101360001846FFF781FF00BF1837BD4680BD80B526
:1013700082B000AF0346FB7197F907301846FFF7BC
:1013800057FF00BF0837BD4680BD000080B584B060
:1013900000AF78607B68002B01D101232BE17B68D3
:1013A00093F83D30DBB2002B06D17B68002283F836
:1013B0003C20786802F06AFF7B68242283F83D2095
:1013C0007B681B681A687B681B6822F001021A6040
:1013D0007B681B681A687B681B6842F400421A60CD
:1013E0007B681B681A687B681B6822F400421A60DD
:1013F000FFF7EEFCF8607B685B68814A934207D890
:10140000FB68804A934294BF01230023DBB206E0CD
:10141000FB687D4A934294BF01230023DBB2002B7B
:1014200001D00123E7E0FB68784AA2FB03239B0C71
:10143000BB607B681B685B6823F03F017B681B68AF
:10144000BA680A435A607B681B681B6A23F03F0135
:101450007B685B686A4A934202D8BB68013309E043
:10146000BB684FF4967202FB03F3694AA2FB0323A5
:101470009B0901337A6812680B4313627B681B680F
:10148000DB6923F44F4222F0FF027B685B685C4912
:101490008B4219D8FB68591E7B685B685B00B1FB07
:1014A000F3F3591C40F6FC730B40002B0AD0FB6889
:1014B000591E7B685B685B00B1FBF3F30133C3F338
:1014C0000B0351E004234FE07B689B68002B11D194
:1014D000FB68581E7B6859680B465B000B44B0FBE9
:1014E000F3F30133C3F30B03002B0CBF01230023E1
:1014F000DBB212E0FB68581E7B6859680B469B0004
:101500000B4499000B44B0FBF3F30133C3F30B031B
:10151000002B0CBF01230023DBB2002B01D00123E1
:1015200022E07B689B68002B0ED1FB68581E7B680D
:1015300059680B465B000B44B0FBF3F30133C3F374
:101540000B0343F400430FE0FB68581E7B685968A7
:101550000B469B000B4499000B44B0FBF3F30133A3
:10156000C3F30B0343F44043796809681343CB6129
:101570007B681B681B6823F0C0017B68DA697B68A5
:101580001B6A1A437B681B680A431A607B681B68E6
:101590009B6823F4034323F0FF037A6811697A6898
:1015A000D26811437A6812680B4393607B681B68AA
:1015B000DB6823F0FF017B685A697B689B691A43EB
:1015C0007B681B680A43DA607B681B681A687B6863
:1015D0001B6842F001021A607B6800221A647B6873
:1015E000202283F83D207B6800221A637B6800225A
:1015F00083F83E20002318461037BD4680BD00BF4B
:10160000A08601007F841E00FF083D0083DE1B438F
:10161000D34D621080B483B000AF78607B6803F173
:1016200008027B685A607B684FF0FF329A607B68E3
:1016300003F108027B68DA607B6803F108027B68CB
:101640001A617B6800221A6000BF0C37BD4680BC5F
:10165000704780B483B000AF78607B6800221A6165
:1016600000BF0C37BD4680BC704780B485B000AF6A
:10167000786039607B685B68FB603B68FA685A6039
:10168000FB689A683B689A60FB689B683A685A6096
:10169000FB683A689A603B687A681A617B681B68E5
:1016A0005A1C7B681A6000BF1437BD4680BC704767
:1016B00080B485B000AF786039603B681B68BB6060
:1016C000BB68B3F1FF3F03D17B681B69FB600CE093
:1016D0007B680833FB6002E0FB685B68FB60FB68CB
:1016E0005B681B68BA689A42F6D2FB685A683B6826
:1016F0005A603B685B683A689A603B68FA689A602F
:10170000FB683A685A603B687A681A617B681B68B4
:101710005A1C7B681A6000BF1437BD4680BC7047F6
:1017200080B485B000AF78607B681B69FB607B6824
:101730005B687A6892689A607B689B687A6852688E
:101740005A60FB685B687A689A4203D17B689A6842
:10175000FB685A607B6800221A61FB681B685A1E8E
:10176000FB681A60FB681B6818461437BD4680BCCE
:101770007047000080B584B000AF786039607B6846
:10178000FB60FB68002B0AD14FF0500383F31188F4
:10179000BFF36F8FBFF34F8FBB6000BFFEE702F058
:1017A0005DFBFB681A68FB68DB6BF968096C01FB81
:1017B00003F31A44FB689A60FB6800229A63FB6893
:1017C0001A68FB685A60FB681A68FB68DB6B013BB0
:1017D000F968096C01FB03F31A44FB68DA60FB68E3
:1017E000FF2283F84420FB68FF2283F845203B68F2
:1017F000002B14D1FB681B69002B1AD0FB68103337
:10180000184601F0FDF80346002B12D00C4B4FF0A8
:1018100080521A60BFF34F8FBFF36F8F09E0FB68F0
:1018200010331846FFF7F6FEFB6824331846FFF71F
:10183000F1FE02F043FB012318461037BD4680BD80
:1018400004ED00E080B58EB002AFF860B9607A6058
:101850003B60FB68002B0AD14FF0500383F31188E3
:10186000BFF36F8FBFF34F8FBB6200BFFEE73B68D4
:10187000002B0AD14FF0500383F31188BFF36F8F11
:10188000BFF34F8F7B6200BFFEE77B68002B02D067
:10189000BB68002B01D0012300E00023002B0AD1FC
:1018A0004FF0500383F31188BFF36F8FBFF34F8F57
:1018B0003B6200BFFEE77B68002B02D1BB68002BB8
:1018C00001D1012300E00023002B0AD14FF0500387
:1018D00083F31188BFF36F8FBFF34F8FFB6100BF9E
:1018E000FEE750237B617B69502B0AD04FF05003F9
:1018F00083F31188BFF36F8FBFF34F8FBB6100BFBE
:10190000FEE77B693B68FB62FB6A002B0DD0FB6A3C
:10191000012283F8462097F83820FB6A009313468B
:101920007A68B968F86800F005F8FB6A184630373D
:10193000BD4680BD80B584B000AFF860B9607A6004
:10194000FB70BB68002B03D1BB69BA691A6002E067
:10195000BB697A681A60BB69FA68DA63BB69BA68FE
:101960001A640121B869FFF705FFBB69FA7883F8AB
:101970004C2000BF1037BD4680BD000080B58EB042
:1019800000AFF860B9607A603B6000237B63FB685E
:101990003B633B6B002B0AD14FF0500383F311885C
:1019A000BFF36F8FBFF34F8FBB6200BFFEE7BB6813
:1019B000002B03D13B6B1B6C002B01D1012300E0FA
:1019C0000023002B0AD14FF0500383F31188BFF39B
:1019D0006F8FBFF34F8F7B6200BFFEE73B68022B28
:1019E00003D13B6BDB6B012B01D1012300E0002312
:1019F000002B0AD14FF0500383F31188BFF36F8F90
:101A0000BFF34F8F3B6200BFFEE701F0B7F903461B
:101A1000002B02D17B68002B01D1012300E00023C1
:101A2000002B0AD14FF0500383F31188BFF36F8F5F
:101A3000BFF34F8FFB6100BFFEE702F00FFA3B6B75
:101A40009A6B3B6BDB6B9A4202D33B68022B29D12A
:101A50003A68B968386B00F00BFAF8623B6B5B6A66
:101A6000002B10D03B6B2433184600F0C9FF03460F
:101A7000002B13D03F4B4FF080521A60BFF34F8FB3
:101A8000BFF36F8F0AE0FB6A002B07D0394B4FF092
:101A900080521A60BFF34F8FBFF36F8F02F00EFAC0
:101AA000012363E07B68002B03D102F007FA0023D7
:101AB0005CE07B6B002B06D107F11403184601F0A4
:101AC00003F801237B6302F0F9F900F079FD02F0DD
:101AD000C5F93B6B93F844305BB2B3F1FF3F03D1E0
:101AE0003B6B002283F844203B6B93F845305BB29C
:101AF000B3F1FF3F03D13B6B002283F8452002F096
:101B0000DDF93A1D07F114031146184600F0F2FF03
:101B10000346002B24D1386B00F0A2FA0346002BB9
:101B200018D03B6B10337A681146184600F018FF46
:101B3000386B00F02DFA00F051FD0346002B7FF4C6
:101B40007CAF0C4B4FF080521A60BFF34F8FBFF346
:101B50006F8F72E7386B00F01BFA00F03FFD6CE707
:101B6000386B00F015FA00F039FD002318463837BD
:101B7000BD4680BD04ED00E080B590B000AFF860D8
:101B8000B9607A603B60FB68BB63BB6B002B0AD11A
:101B90004FF0500383F31188BFF36F8FBFF34F8F64
:101BA000BB6200BFFEE7BB68002B03D1BB6B1B6CA5
:101BB000002B01D1012300E00023002B0AD14FF0BC
:101BC000500383F31188BFF36F8FBFF34F8F7B6296
:101BD00000BFFEE73B68022B03D1BB6BDB6B012B25
:101BE00001D1012300E00023002B0AD14FF0500364
:101BF00083F31188BFF36F8FBFF34F8F3B6200BF3A
:101C0000FEE702F0EDF9EFF311824FF0500383F39A
:101C10001188BFF36F8FBFF34F8FFA61BB61FB6910
:101C20007B63BB6B9A6BBB6BDB6B9A4202D33B68EB
:101C3000022B2FD1BB6B93F8453087F83330BB6B49
:101C40009B6BFB623A68B968B86B00F011F997F9C1
:101C50003330B3F1FF3F12D1BB6B5B6A002B16D060
:101C6000BB6B2433184600F0CBFE0346002B0ED08E
:101C70007B68002B0BD07B6801221A6007E097F885
:101C800033300133DBB25AB2BB6B83F845200123FA
:101C9000FB6301E00023FB637B6B7B617B6983F368
:101CA000118800BFFB6B18464037BD4680BD000061
:101CB00080B58CB000AFF860B9607A600023FB6239
:101CC000FB68BB62BB6A002B0AD14FF0500383F361
:101CD0001188BFF36F8FBFF34F8F3B6200BFFEE7EA
:101CE000BB68002B03D1BB6A1B6C002B01D1012305
:101CF00000E00023002B0AD14FF0500383F311883A
:101D0000BFF36F8FBFF34F8FFB6100BFFEE701F0A2
:101D100035F80346002B02D17B68002B01D101234B
:101D200000E00023002B0AD14FF0500383F3118809
:101D3000BFF36F8FBFF34F8FBB6100BFFEE702F0B1
:101D40008DF8BB6A9B6B7B627B6A002B1FD0B968E6
:101D5000B86A00F0F7F87B6A5A1EBB6A9A63BB6ADE
:101D60001B69002B0FD0BB6A1033184600F048FEE9
:101D70000346002B07D03D4B4FF080521A60BFF353
:101D80004F8FBFF36F8F02F099F8012369E07B68F2
:101D9000002B03D102F092F8002362E0FB6A002BD3
:101DA00006D107F11003184600F08EFE0123FB62F6
:101DB00002F084F800F004FC02F050F8BB6A93F8DB
:101DC00044305BB2B3F1FF3F03D1BB6A002283F81A
:101DD0004420BB6A93F845305BB2B3F1FF3F03D1B7
:101DE000BB6A002283F8452002F068F83A1D07F12B
:101DF00010031146184600F07DFE0346002B23D148
:101E0000B86A00F017F90346002B17D0BB6A2433D9
:101E10007A681146184600F0A3FDB86A00F0B8F8D9
:101E200000F0DCFB0346002B89D1104B4FF08052B1
:101E30001A60BFF34F8FBFF36F8F80E7B86A00F06F
:101E4000A7F800F0CBFB7AE7B86A00F0A1F800F041
:101E5000C5FBB86A00F0EEF80346002B3FF46FAF05
:101E6000002318463037BD4680BD00BF04ED00E0BA
:101E700080B586B000AFF860B9607A6000237B61FE
:101E8000FB689B6B3B61FB681B6C002B0DD1FB68F7
:101E90001B68002B4DD1FB689B68184600F08CFF37
:101EA0007861FB6800229A6043E07B68002B19D1BF
:101EB000FB685868FB681B6C1A46B96802F042FB65
:101EC000FB685A68FB681B6C1A44FB685A60FB6825
:101ED0005A68FB689B689A422BD3FB681A68FB68B8
:101EE0005A6026E0FB68D868FB681B6C1A46B96824
:101EF00002F028FBFB68DA68FB681B6C5B421A4443
:101F0000FB68DA60FB68DA68FB681B689A4207D2F4
:101F1000FB689A68FB681B6C5B421A44FB68DA60DA
:101F20007B68022B05D13B69002B02D03B69013B4A
:101F30003B613B695A1CFB689A637B6918461837FA
:101F4000BD4680BD80B582B000AF786039607B68E7
:101F50001B6C002B18D07B68DA687B681B6C1A44FA
:101F60007B68DA607B68DA687B689B689A4203D397
:101F70007B681A687B68DA607B68D9687B681B6C51
:101F80001A46386802F0DEFA00BF0837BD4680BD49
:101F900080B584B000AF786001F060FF7B6893F893
:101FA0004530FB7311E07B685B6A002B12D07B68C5
:101FB0002433184600F024FD0346002B01D000F026
:101FC000FBFDFB7B013BDBB2FB7397F90F30002B72
:101FD000E9DC00E000BF7B68FF2283F8452001F0C8
:101FE0006DFF01F03BFF7B6893F84430BB7311E059
:101FF0007B681B69002B12D07B681033184600F0F9
:10200000FFFC0346002B01D000F0D6FDBB7B013B5B
:10201000DBB2BB7397F90E30002BE9DC00E000BFA8
:102020007B68FF2283F8442001F048FF00BF10378F
:10203000BD4680BD80B584B000AF786001F00EFF72
:102040007B689B6B002B02D10123FB6001E0002326
:10205000FB6001F033FFFB6818461037BD4680BDBA
:1020600080B584B000AF786001F0F8FE7B689A6BB1
:102070007B68DB6B9A4202D10123FB6001E0002305
:10208000FB6001F01BFFFB6818461037BD4680BDA2
:1020900080B485B000AF786039600023FB6014E045
:1020A0000E4AFB6852F83330002B0BD10B49FB680A
:1020B0003A6841F83320094AFB68DB0013447A6828
:1020C0005A6006E0FB680133FB60FB68072BE7D929
:1020D00000BF00BF1437BD4680BC704730000020F1
:1020E00080B586B000AFF860B9607A60FB687B614C
:1020F00001F0B4FE7B6993F844305BB2B3F1FF3F6B
:1021000003D17B69002283F844207B6993F8453032
:102110005BB2B3F1FF3F03D17B69002283F8452016
:1021200001F0CCFE7B699B6B002B06D17B692433CD
:102130007A68B968184600F037FC7869FFF728FF1D
:1021400000BF1837BD4680BD80B58EB004AFF860C3
:10215000B9607A603B607B6B002B0AD14FF0500373
:1021600083F31188BFF36F8FBFF34F8F3B6200BFC4
:10217000FEE7BB6B002B0AD14FF0500383F31188AD
:10218000BFF36F8FBFF34F8FFB6100BFFEE75C2390
:102190003B613B695C2B0AD04FF0500383F31188FD
:1021A000BFF36F8FBFF34F8FBB6100BFFEE73B698B
:1021B000BB6B002B1ED07B6B002B1BD0BB6B7B62E1
:1021C0007B6A7A6B1A637B6A022283F859200023A8
:1021D00003937B6A029307F1140301933B6B009313
:1021E0003B687A68B968F86800F050F8786A00F0DF
:1021F000DDF801E000237B617B6918462837BD4686
:1022000080BD80B58CB004AFF860B9603B60134608
:10221000FB80FB889B00184601F048FB78617B69D6
:10222000002B0ED05C2001F041FBF861FB69002B14
:1022300003D0FB697A691A6305E0786901F002FC52
:1022400001E00023FB61FB69002B17D0FB69002232
:1022500083F85920FA8800230393FB690293FB6AF1
:102260000193BB6A00933B68B968F86800F00EF808
:10227000F86900F09BF80123BB6102E04FF0FF33E7
:10228000BB61BB6918462037BD4680BD80B588B0AC
:1022900000AFF860B9607A603B603B6B186B7B689D
:1022A0009B001A46A52102F05BF93B6B1A6B7B6819
:1022B00003F18043013B9B001344BB61BB6923F0E6
:1022C0000703BB61BB6903F00703002B0AD04FF083
:1022D000500383F31188BFF36F8FBFF34F8F7B6180
:1022E00000BFFEE7BB68002B1FD00023FB6112E09C
:1022F000BA68FB69134419783A6BFB6913443433A9
:102300000A461A70BA68FB6913441B78002B06D082
:10231000FB690133FB61FB690F2BE9D900E000BFCA
:102320003B6B002283F8432003E03B6B002283F8E1
:102330003420BB6A372B01D93723BB623B6BBA6AA7
:10234000DA623B6BBA6ADA643B6B00221A653B6B5C
:1023500004331846FFF77DF93B6B18331846FFF737
:1023600078F93B6B3A6B1A61BB6AC3F138023B6B7D
:102370009A613B6B3A6B5A623B6B00225A653B6B2E
:10238000002283F858203A68F968B86901F076FCB1
:1023900002463B6B1A60FB6A002B02D0FB6A3A6B69
:1023A0001A6000BF2037BD4680BD000080B582B0F6
:1023B00000AF786001F052FD2D4B1B6801332C4AB1
:1023C00013602C4B1B68002B09D12A4A7B681360D1
:1023D000274B1B68012B10D100F012FC0DE0264B9F
:1023E0001B68002B09D1234B1B68DA6A7B68DB6A08
:1023F0009A4202D81F4A7B681360204B1B68013346
:102400001E4A13601D4B1A687B685A647B68DA6A3F
:102410001B4B1B689A4203D97B68DB6A184A13601E
:102420007B68DA6A13469B0013449B00154A1A44E2
:102430007B68043319461046FFF717F901F03EFD9B
:102440000D4B1B68002B0ED00A4B1B68DA6A7B68A9
:10245000DB6A9A4207D20C4B4FF080521A60BFF3EE
:102460004F8FBFF36F8F00BF0837BD4680BD00BFE1
:102470004405002070000020500500206005002069
:102480004C0500207400002004ED00E080B584B00D
:1024900000AF78600023FB607B68002B17D0134BE4
:1024A0001B68002B0AD04FF0500383F31188BFF351
:1024B0006F8FBFF34F8FBB6000BFFEE700F080F867
:1024C0000021786800F0E6FC00F088F8F860FB680E
:1024D000002B07D1064B4FF080521A60BFF34F8F8D
:1024E000BFF36F8F00BF1037BD4680BD6C05002065
:1024F00004ED00E080B58AB004AF0023BB60002388
:102500007B603A46391D07F10803184601F09CF933
:1025100039687B68BA680292019300230093002314
:102520000A4621492148FFF70FFE0346204A13605F
:102530001F4B1B68002B02D001237B6101E00023AD
:102540007B617B69012B02D100F0F8FC78617B692B
:10255000012B16D14FF0500383F31188BFF36F8F17
:10256000BFF34F8F3B6100BF124B4FF0FF321A6039
:10257000114B01221A60114B00221A6001F0FCFB82
:102580000EE07B69B3F1FF3F0AD14FF0500383F3B4
:102590001188BFF36F8FBFF34F8FFB6000BFFEE763
:1025A00000BF1837BD4680BD88450008D12B000804
:1025B0006805002064050020500500204805002023
:1025C00080B400AF044B1B680133034A136000BFA3
:1025D000BD4680BC704700BF6C05002080B584B04C
:1025E00000AF0023FB600023BB60424B1B68002B45
:1025F0000AD14FF0500383F31188BFF36F8FBFF3FD
:102600004F8F3B6000BFFEE701F028FC394B1B6891
:10261000013B384A1360374B1B68002B62D1364BA5
:102620001B68002B5ED02FE0344BDB68DB68FB605F
:10263000FB6818331846FFF773F8FB680433184635
:10264000FFF76EF8FB68DA6A2D4B1B689A4203D9D4
:10265000FB68DB6A2A4A1360FB68DA6A13469B0050
:1026600013449B00274A1A44FB680433194610465A
:10267000FEF7FBFFFB68DA6A234B1B68DB6A9A42B2
:1026800002D3224B01221A601C4B1B68002BCBD1BA
:10269000FB68002B01D000F051FB1D4B1B687B60D9
:1026A0007B68002B10D000F045F80346002B02D0C9
:1026B000164B01221A607B68013B7B607B68002B14
:1026C000F1D1134B00221A60104B1B68002B09D06C
:1026D0000123BB600F4B4FF080521A60BFF34F8F46
:1026E000BFF36F8F01F0EAFBBB6818461037BD4699
:1026F00080BD00BF6C0500204405002004050020BB
:102700004C050020740000207000002058050020B7
:102710005405002004ED00E080B483B000AF044B0A
:102720001B687B607B6818460C37BD4680BC7047D1
:102730004805002080B586B000AF00237B614F4B79
:102740001B68002B40F08F804D4B1B6801333B61B1
:102750004B4A3B6913603B69002B20D1494B1B68F6
:102760001B68002B0AD04FF0500383F31188BFF38E
:102770006F8FBFF34F8F3B6000BFFEE7414B1B687D
:10278000FB60414B1B683F4A13603F4AFB68136084
:102790003E4B1B6801333D4A136000F0CFFA3C4BBF
:1027A0001B683A699A4249D3364B1B681B68002B59
:1027B00004D1374B4FF0FF321A603FE0314B1B68BA
:1027C000DB68DB68BB60BB685B687B603A697B6821
:1027D0009A4203D22E4A7B6813602FE0BB68043311
:1027E0001846FEF79DFFBB689B6A002B04D0BB68B0
:1027F00018331846FEF794FFBB68DA6A254B1B684E
:102800009A4203D9BB68DB6A224A1360BB68DA6A62
:1028100013469B0013449B001F4A1A44BB680433B1
:1028200019461046FEF721FFBB68DA6A1B4B1B688E
:10283000DB6A9A42B8D301237B61B5E7174B1B686B
:10284000DA6A154913469B0013449B000B441B682E
:10285000012B01D901237B61114B1B68002B07D091
:1028600001237B6104E00F4B1B6801330D4A1360A9
:102870007B6918461837BD4680BD00BF6C05002037
:1028800048050020FC040020000500205C05002015
:10289000640500204C05002074000020700000201A
:1028A000580500205405002080B485B000AF274BA8
:1028B0001B68002B03D0264B01221A6041E0244BF9
:1028C00000221A60234B1B68FB6010E0FB68002BA2
:1028D0000AD14FF0500383F31188BFF36F8FBFF31A
:1028E0004F8F7B6000BFFEE7FB68013BFB601A492E
:1028F000FA6813469B0013449B000B441B68002B93
:10290000E4D0FA6813469B0013449B00124A134418
:10291000BB60BB685B685A68BB685A60BB685A6832
:10292000BB6808339A4204D1BB685B685A68BB68CD
:102930005A60BB685B68DB68084A1360054AFB683D
:10294000136000BF1437BD4680BC70476C05002083
:10295000580500204C050020740000207000002065
:1029600080B584B000AF786039607B68002B0AD1F5
:102970004FF0500383F31188BFF36F8FBFF34F8F76
:10298000FB6000BFFEE7074B1B68183319467868E9
:10299000FEF78EFE0121386800F07CFA00BF103788
:1029A000BD4680BD7000002080B586B000AFF860E5
:1029B000B9607A60FB68002B0AD14FF0500383F3B3
:1029C0001188BFF36F8FBFF34F8F7B6100BFFEE7AE
:1029D0000A4B1B6818331946F868FEF746FE7B68F9
:1029E000002B02D04FF0FF33BB607968B86800F06D
:1029F00051FA00BF1837BD4680BD00BF70000020EF
:102A000080B586B000AF78607B68DB68DB683B61CF
:102A10003B69002B0AD14FF0500383F31188BFF3B9
:102A20006F8FBFF34F8FFB6000BFFEE73B6918332A
:102A30001846FEF775FE1E4B1B68002B1DD13B6927
:102A400004331846FEF76CFE3B69DA6A194B1B68C3
:102A50009A4203D93B69DB6A164A13603B69DA6A1A
:102A600013469B0013449B00134A1A443B690433EA
:102A700019461046FEF7F9FD05E03B691833194683
:102A80000E48FEF7F2FD3B69DA6A0D4B1B68DB6A04
:102A90009A4205D901237B610A4B01221A6001E0A9
:102AA00000237B617B6918461837BD4680BD00BF97
:102AB0006C0500204C050020740000200405002057
:102AC000700000205805002080B483B000AF78600B
:102AD000064B1A687B681A60054B1A687B685A6057
:102AE00000BF0C37BD4680BC704700BF5C050020AE
:102AF0004805002080B588B000AF786039607B68F9
:102B0000002B0AD14FF0500383F31188BFF36F8F6E
:102B1000BFF34F8F3B6100BFFEE73B68002B0AD13C
:102B20004FF0500383F31188BFF36F8FBFF34F8FC4
:102B3000FB6000BFFEE701F091F91D4B1B68BB6114
:102B40007B685B68BA69D31A7B613B681B68B3F129
:102B5000FF3F02D10023FB6123E07B681A68154B1D
:102B60001B689A4207D07B685B68BA699A4202D3B5
:102B70000123FB6115E03B681B687A699A420BD21E
:102B80003B681A687B69D21A3B681A607868FFF75D
:102B90009BFF0023FB6104E03B6800221A600123D5
:102BA000FB6101F08BF9FB6918462037BD4680BDFB
:102BB000480500205C05002080B400AF034B0122D3
:102BC0001A6000BFBD4680BC704700BF580500209A
:102BD00080B582B000AF786000F052F8064B1B68F9
:102BE000012BF9D9054B4FF080521A60BFF34F8F7C
:102BF000BFF36F8FF0E700BF7400002004ED00E02A
:102C000080B582B000AF00237B600CE07A68134689
:102C10009B0013449B00124A13441846FEF7FAFC2B
:102C20007B6801337B607B68372BEFD90D48FEF75B
:102C3000F1FC0D48FEF7EEFC0C48FEF7EBFC0C48EF
:102C4000FEF7E8FC0B48FEF7E5FC0B4B054A1A6063
:102C50000A4B054A1A6000BF0837BD4680BD00BF59
:102C600074000020D4040020E804002004050020A3
:102C70001805002030050020FC040020000500207D
:102C800080B582B000AF19E001F0E8F8104BDB68C6
:102C9000DB687B607B6804331846FEF741FD0D4B13
:102CA0001B68013B0B4A13600B4B1B68013B0A4A34
:102CB000136001F003F9786800F010F8064B1B6808
:102CC000002BE1D100BF00BF0837BD4680BD00BF6B
:102CD00018050020440500202C05002080B584B094
:102CE00000AF78607B6893F85930002B08D17B687F
:102CF0001B6B184600F0A6FE786800F0A3FE18E0F3
:102D00007B6893F85930012B03D1786800F09AFE64
:102D10000FE07B6893F85930022B0AD04FF0500334
:102D200083F31188BFF36F8FBFF34F8FFB6000BF3A
:102D3000FEE700BF1037BD4680BD000080B483B001
:102D400000AF0C4B1B681B68002B04D10A4B4FF0E3
:102D5000FF321A6008E0074B1B68DB68DB687B60AA
:102D60007B685B68044A136000BF0C37BD4680BCBB
:102D7000704700BFFC0400206405002080B483B0CD
:102D800000AF0B4B1B68002B02D101237B6008E0D6
:102D9000084B1B68002B02D102237B6001E000235B
:102DA0007B607B6818460C37BD4680BC704700BF0F
:102DB000500500206C05002080B586B000AF78601B
:102DC0007B683B6100237B617B68002B56D02E4BD8
:102DD0001B683A699A420AD04FF0500383F3118876
:102DE000BFF36F8FBFF34F8FFB6000BFFEE73B6900
:102DF0001B6D002B0AD14FF0500383F31188BFF3F2
:102E00006F8FBFF34F8FBB6000BFFEE73B691B6D49
:102E10005A1E3B691A653B69DA6A3B69DB6C9A4268
:102E20002CD03B691B6D002B28D13B69043318461D
:102E3000FEF776FC3B69DA6C3B69DA623B69DB6A78
:102E4000C3F138023B699A613B69DA6A0F4B1B6830
:102E50009A4203D93B69DB6A0C4A13603B69DA6A20
:102E600013469B0013449B00094A1A443B690433F0
:102E700019461046FEF7F9FB01237B617B69184672
:102E80001837BD4680BD00BF700000204C050020F3
:102E90007400002080B584B000AF78603960214BA9
:102EA0001B68FB60204B1B6804331846FEF738FC98
:102EB0007B68B3F1FF3F0AD13B68002B07D01A4B68
:102EC0001B68043319461948FEF7CFFB26E0FA6861
:102ED0007B681344BB60144B1B68BA685A60BA68BD
:102EE000FB689A4209D2124B1A680F4B1B680433D5
:102EF00019461046FEF7DCFB10E00E4B1A680A4B31
:102F00001B68043319461046FEF7D2FB0A4B1B68B8
:102F1000BA689A4202D2084ABB68136000BF1037F1
:102F2000BD4680BD4805002070000020300500200F
:102F300000050020FC0400206405002080B58AB054
:102F400004AF00237B6100F005FB1C4B1B68002BCA
:102F500021D00023FB600023BB603A1D07F108016C
:102F600007F10C03184600F087FC7968BB68FA6823
:102F7000029201930223009300230A46104911484C
:102F8000FFF7E2F80346104A13600F4B1B68002B53
:102F900001D001237B617B69002B0AD14FF05003E4
:102FA00083F31188BFF36F8FBFF34F8F3B6100BF77
:102FB000FEE77B6918461837BD4680BDA005002096
:102FC0009045000801310008A405002080B58AB0B2
:102FD00000AFF860B9607A603B6000237B62FB68F9
:102FE000002B0AD14FF0500383F31188BFF36F8F8A
:102FF000BFF34F8F3B6200BFFEE71A4B1B68002BED
:103000002AD0BB683B617B687B61FB68BB61BB68A6
:10301000052B18DCFFF7B2FE0346022B09D1114B3A
:10302000186807F1100100233A6BFEF7A7FC7862DD
:1030300012E00C4B186807F1100100230022FEF784
:103040009DFC786208E0074B186807F11001002327
:103050003A68FEF791FD78627B6A18462837BD46CC
:1030600080BD00BFA005002080B588B002AF7860A9
:103070003960224B1B68DB68DB687B617B6904334A
:103080001846FEF74DFB7B6993F8283003F00403E4
:10309000002B22D07B699A697B68D1187B683A68DB
:1030A000786900F0CFF80346002B1FD0002300936F
:1030B00000237A6800217869FFF788FF38613B694F
:1030C000002B13D14FF0500383F31188BFF36F8FA0
:1030D000BFF34F8FFB6000BFFEE77B6993F828309A
:1030E00023F00103DAB27B6983F828207B691B6A2D
:1030F0007869984700BF1837BD4680BD9805002005
:1031000080B584B000AF786007F10803184600F07E
:1031100057F8F860BB681946F86800F003F800F04B
:10312000D3F8F1E780B584B000AF78603960FFF77D
:1031300047FA07F10803184600F064F8F860BB6826
:10314000002B30D13B68002B0AD17A68FB689A4289
:1031500006D8FFF743FAF9687868FFF785FF24E09F
:103160003B68002B08D0134B1B681B68002B01D158
:10317000012300E000233B600F4B18687A68FB686E
:10318000D31A3A681946FEF7ABFFFFF727FA034652
:10319000002B0AD1094B4FF080521A60BFF34F8FBA
:1031A000BFF36F8F01E0FFF719FA00BF1037BD467C
:1031B00080BD00BF9C050020A005002004ED00E0BC
:1031C00080B485B000AF78600D4B1B681B68002B86
:1031D00001D1012200E000227B681A607B681B6835
:1031E000002B05D1064B1B68DB681B68FB6001E008
:1031F0000023FB60FB6818461437BD4680BC70474F
:103200009805002080B584B000AF7860FFF784FA9D
:10321000F8600B4B1B68FA689A4205D200F036F949
:103220007B6801221A6002E07B6800221A60044A6F
:10323000FB681360FB6818461037BD4680BD00BFB1
:10324000A805002080B586B000AFF860B9607A604C
:103250003B6000237B61FB68BA685A60FB68FA68D0
:103260001A61BA687B689A4212D87A683B68D21AA7
:10327000FB689B699A4202D301237B611BE0104BE0
:103280001A68FB68043319461046FEF711FA12E07B
:103290007A683B689A4206D2BA683B689A4202D37F
:1032A00001237B6107E0074B1A68FB68043319466A
:1032B0001046FEF7FDF97B6918461837BD4680BDFC
:1032C0009C0500209805002080B58EB002AFCAE0B2
:1032D0007B68002B18DA3B1D0433FB62FB6A002B72
:1032E0000AD14FF0500383F31188BFF36F8FBFF300
:1032F0004F8FFB6100BFFEE7FB6A1B68FA6A5068EC
:10330000FA6A9268114698477B68002BC0F2AA803F
:10331000FB68BB62BB6A5B69002B04D0BB6A0433E9
:103320001846FEF7FDF93B461846FFF76BFF78623B
:103330007B68092B00F2978001A252F823F000BFAE
:10334000693300086933000869330008DD33000879
:10335000F13300083B340008693300086933000882
:10336000DD330008F1330008BB6A93F8283043F0DE
:103370000103DAB2BB6A83F82820BA68BB6A9B698A
:10338000D118BB687A6AB86AFFF75CFF0346002B66
:1033900069D0BB6A1B6AB86A9847BB6A93F8283041
:1033A00003F00403002B5ED0BA68BB6A9B691A4421
:1033B0000023009300230021B86AFFF707FE38625C
:1033C0003B6A002B4FD14FF0500383F31188BFF3BA
:1033D0006F8FBFF34F8FBB6100BFFEE7BB6A93F8EF
:1033E000283023F00103DAB2BB6A83F828203AE0E0
:1033F000BB6A93F8283043F00103DAB2BB6A83F862
:103400002820BA68BB6A9A61BB6A9B69002B0AD103
:103410004FF0500383F31188BFF36F8FBFF34F8FCB
:103420007B6100BFFEE7BB6A9A697B6AD1187B6A41
:103430007A6AB86AFFF706FF15E0BB6A93F828308E
:1034400003F00203002B03D1B86A00F0FBFA0AE094
:10345000BB6A93F8283023F00103DAB2BB6A83F821
:10346000282000E000BF084B1B68391D00221846C9
:10347000FEF71EFC0346002B7FF42AAF00BF00BFFF
:103480003037BD4680BD00BFA005002080B588B0A4
:1034900002AF48E02D4B1B68DB681B683B612B4B80
:1034A0001B68DB68DB68FB60FB6804331846FEF7CB
:1034B00037F9FB681B6AF8689847FB6893F828306F
:1034C00003F00403002B2ED0FB689B693A69134478
:1034D000BB60BA683B699A420ED9FB68BA685A6009
:1034E000FB68FA681A61194B1A68FB6804331946BD
:1034F0001046FEF7DDF816E00023009300233A693A
:103500000021F868FFF762FD78607B68002B0AD124
:103510004FF0500383F31188BFF36F8FBFF34F8FCA
:103520003B6000BFFEE7094B1B681B68002BB1D155
:10353000064B1B687B61064B1B68044A1360044AF8
:103540007B69136000BF1837BD4680BD9805002019
:103550009C05002080B582B002AF00F07FFC154BC7
:103560001B68002B20D11448FEF754F81348FEF7CF
:1035700051F8134B104A1A60124B104A1A6000237C
:103580000093114B114A10210A20FEF75BF9034604
:10359000084A1360074B1B68002B05D0054B1B68BE
:1035A0000B491846FEF774FD00F088FC00BFBD46CD
:1035B00080BD00BFA005002070050020840500200C
:1035C000980500209C0500204C060020AC0500203A
:1035D0009845000880B483B000AF03463960FB71A2
:1035E00097F90730002B0ADB3B68DAB20C4997F9F0
:1035F00007301201D2B20B4483F800230AE03B6883
:10360000DAB20849FB7903F00F03043B1201D2B28E
:103610000B441A7600BF0C37BD4680BC704700BF14
:1036200000E100E000ED00E080B500AF054B1B6855
:10363000FFF7A4FB0346012B01D000F08DFC00BF77
:1036400080BD00BF10E000E080B500AF00216FF04A
:103650000400FFF7BFFF00BF80BD000080B483B04F
:1036600000AFEFF305833B603B68002B03D06FF0A6
:1036700005037B600CE0094B1B68002B05D1074B51
:1036800001221A6000237B6002E04FF0FF337B6071
:103690007B6818460C37BD4680BC70479C060020EE
:1036A00080B582B000AFEFF305833B603B68002B31
:1036B00003D06FF005037B6010E00B4B1B68012B00
:1036C00009D1FFF7C1FF084B02221A60FEF712FF73
:1036D00000237B6002E04FF0FF337B607B6818467D
:1036E0000837BD4680BD00BF9C06002080B58EB067
:1036F00004AFF860B9607A6000233B61EFF30583A3
:103700007B617B69002B7ED1FB68002B7BD0802303
:103710003B621823FB6100237B624FF0FF33BB61E8
:103720007B68002B45D07B681B68002B02D07B6830
:103730001B687B627B689B69002B02D07B689B695E
:10374000FB61FB69002B08D0FB69382B05D87B682F
:103750005B6803F00103002B01D0002354E07B6879
:103760005B69002B03D07B685B699B083B627B68CD
:103770009B68002B0ED07B68DB685B2B0AD97B68CB
:103780001B69002B06D07B685B69002B02D00123EC
:10379000BB6110E07B689B68002B0CD17B68DB6809
:1037A000002B08D17B681B69002B04D10023BB616F
:1037B00001E00023BB61BB69012B10D17B681B6951
:1037C0007A68926802920193FB690093BB683A6A37
:1037D000796AF868FEF7B8FC03463B6113E0BB6901
:1037E000002B10D13B6A9AB207F110030193FB69D9
:1037F0000093BB68796AF868FEF703FD0346012B66
:1038000001D000233B613B6918462837BD4680BD87
:1038100080B584B000AF7860EFF30583BB60BB6810
:10382000002B03D06FF00503FB6007E00023FB6073
:103830007B68002B02D07868FEF728FEFB681846EC
:103840001037BD4680BD000080B485B000AFF86081
:10385000B9607A60FB68064A1A60BB68054A1A605C
:103860007B6880221A6000BF1437BD4680BC704759
:10387000A0060020FC06002080B485B000AFF860F0
:10388000B9607A60FB68074A1A60BB68064A1A602A
:103890007B684FF480721A6000BF1437BD4680BC4D
:1038A000704700BFFC0800205809002080B58AB08E
:1038B00000AF78600023FB61FEF782FE5B4B1B6864
:1038C000002B01D100F020F9594B1A687B68134096
:1038D000002B40F093807B68002B1DD008227B6872
:1038E00013447B607B6803F00703002B14D07B68D4
:1038F00023F0070308337B607B6803F00703002B8A
:103900000AD04FF0500383F31188BFF36F8FBFF3DA
:103910004F8F7B6100BFFEE77B68002B6ED0454B6D
:103920001B687A689A4269D8434B3B62424B1B68DA
:103930007B6204E07B6A3B627B6A1B687B627B6A1A
:103940005B687A689A4203D97B6A1B68002BF1D1C5
:10395000364B1B687A6A9A4250D03B6A1B68082231
:103960001344FB617B6A1A683B6A1A607B6A5A6877
:103970007B68D21A08235B009A421FD97A6A7B6857
:103980001344BB61BB6903F00703002B0AD04FF05F
:10399000500383F31188BFF36F8FBFF34F8F3B61E9
:1039A00000BFFEE77B6A5A687B68D21ABB695A601F
:1039B0007B6A7A685A60B86900F008F91D4B1A688A
:1039C0007B6A5B68D31A1B4A13601A4B1A681B4B3D
:1039D0001B689A4203D2174B1B68184A13607B6A14
:1039E0005A68134B1B681A437B6A5A607B6A002231
:1039F0001A60134B1B680133114A1360FEF7EEFD8A
:103A0000FB6903F00703002B0AD04FF0500383F348
:103A10001188BFF36F8FBFF34F8FFB6000BFFEE7CE
:103A2000FB6918462837BD4680BD00BF60190020DD
:103A3000741900206419002058190020681900200A
:103A40006C19002080B586B000AF78607B687B6120
:103A50007B68002B4DD008235B427A6913447B615D
:103A60007B693B613B695A68244B1B681340002B00
:103A70000AD14FF0500383F31188BFF36F8FBFF368
:103A80004F8FFB6000BFFEE73B691B68002B0AD02D
:103A90004FF0500383F31188BFF36F8FBFF34F8F45
:103AA000BB6000BFFEE73B695A68144B1B681340BC
:103AB000002B1ED03B691B68002B1AD13B695A684A
:103AC0000E4B1B68DB431A403B695A60FEF778FDDA
:103AD0003B695A680A4B1B681344094A13603869EA
:103AE00000F074F8074B1B680133064A1360FEF7B9
:103AF00075FD00BF1837BD4680BD00BF741900209A
:103B0000641900207019002080B485B000AF4FF414
:103B10004063BB60274BFB60FB6803F00703002B8F
:103B20000CD0FB680733FB60FB6823F00703FB60E6
:103B3000BA68FB68D31A1F4A1344BB60FB687B60FA
:103B40001D4A7B6813601C4B00225A607B68BA6870
:103B50001344FB600822FB689B1AFB60FB6823F0A0
:103B60000703FB60FB68154A1360144B1B680022B7
:103B70005A60124B1B6800221A607B683B603B68EE
:103B8000FA68D21A3B685A600C4B1A683B681A6094
:103B90003B685B680A4A13603B685B68094A1360CC
:103BA000094B4FF000421A6000BF1437BD4680BC7D
:103BB000704700BF580D00205819002060190020E0
:103BC00068190020641900207419002080B485B0A1
:103BD00000AF7860274BFB6002E0FB681B68FB606E
:103BE000FB681B687A689A42F7D8FB68BB60FB6881
:103BF0005B68BA6813447A689A4208D1FB685A68CD
:103C00007B685B681A44FB685A60FB687B607B6872
:103C1000BB607B685B68BA681A44FB681B689A42A1
:103C200018D1FB681A68144B1B689A420DD07B6848
:103C30005A68FB681B685B681A447B685A60FB68BB
:103C40001B681A687B681A6008E00B4B1A687B686F
:103C50001A6003E0FB681A687B681A60FA687B6880
:103C60009A4202D0FB687A681A6000BF1437BD46DA
:103C700080BC7047581900206019002080B485B0BE
:103C800000AFF860B9607A60FB68043BFB60FB68DA
:103C90004FF080721A60FB68043BFB60BB6823F046
:103CA0000102FB681A60FB68043BFB60084AFB6882
:103CB0001A60FB68143BFB607A68FB681A60FB685B
:103CC000203BFB60FB6818461437BD4680BC70473C
:103CD000D53C000880B485B000AF00237B60124B58
:103CE0001B68B3F1FF3F0AD04FF0500383F31188F4
:103CF000BFF36F8FBFF34F8FFB6000BFFEE74FF046
:103D0000500383F31188BFF36F8FBFF34F8FBB60F6
:103D100000BF00BF7B68002BFCD000BF00BF143782
:103D2000BD4680BC704700BF0C00002000000000B2
:103D3000074B19680868B0E8F00F80F30988BFF3F3
:103D40006F8F4FF0000080F311884EF00D0E70471A
:103D50007000002000BF00BF06480068006880F3C4
:103D6000088862B661B6BFF34F8FBFF36F8F00DF75
:103D700000BF00BF08ED00E080B584B000AF324B5B
:103D8000FB60FB681B78DBB27B60FB68FF221A706C
:103D9000FB681B78DBB2FB70FB78DBB203F05003EF
:103DA000DAB22A4B1A702A4B07221A6009E0284B14
:103DB0001B68013B264A1360FB78DBB25B00DBB279
:103DC000FB70FB78DBB203F08003802BEFD0204B3D
:103DD0001B68C3F10703042B0AD04FF0500383F391
:103DE0001188BFF36F8FBFF34F8FBB6000BFFEE73B
:103DF000174B1B681B02164A1360154B1B6803F414
:103E0000E063134A13607B68DAB2FB681A70114BE7
:103E10001B68104A43F4700313600E4B1B680D4A75
:103E200043F07043136000F0B9F80B4B00221A60A6
:103E3000FFF792FFFEF738FDFFF74CFF002318460F
:103E40001037BD4680BD00BF00E400E078190020B7
:103E50007C19002020ED00E00C00002080B483B02D
:103E600000AF4FF0500383F31188BFF36F8FBFF3A0
:103E70004F8F7B6000BF0F4B1B6801330D4A1360EF
:103E80000C4B1B68012B0FD10B4B1B68DBB2002BBB
:103E90000AD04FF0500383F31188BFF36F8FBFF345
:103EA0004F8F3B6000BFFEE700BF0C37BD4680BCB4
:103EB000704700BF0C00002004ED00E080B483B028
:103EC00000AF114B1B68002B0AD14FF0500383F356
:103ED0001188BFF36F8FBFF34F8F7B6000BFFEE78A
:103EE000094B1B68013B084A1360074B1B68002BFA
:103EF00005D100233B603B6883F3118800BF00BFFE
:103F00000C37BD4680BC70470C000020000000004C
:103F1000EFF30980BFF36F8F0D4B1A6820E9F00FA4
:103F200010602DE908404FF0500080F31188FEF733
:103F3000BBFC4FF0000080F31188BDE80840196811
:103F40000868B0E8F00F80F30988BFF36F8F7047FF
:103F50007000002000BF00BF80B582B000AF4FF0FE
:103F6000500383F31188BFF36F8FBFF34F8F7B60D4
:103F700000BFFEF7DFFB0346002B03D0064B4FF0DC
:103F800080521A6000233B603B6883F3118800BFB6
:103F900000BF0837BD4680BD04ED00E080B400AF2F
:103FA0000A4B00221A600A4B00221A60094B1B6858
:103FB000094AA2FB03239B09084A013B1360034BF8
:103FC00007221A6000BFBD4680BC704710E000E0C9
:103FD00018E000E000000020D34D621014E000E083
:103FE00080B485B000AFEFF30583FB60FB680F2B57
:103FF00014D9164AFB6813441B78FB72144B1B78C8
:10400000FA7A9A420AD24FF0500383F31188BFF331
:104010006F8FBFF34F8F7B6000BFFEE70D4B1B68B8
:1040200003F4E0620C4B1B689A420AD94FF050032C
:1040300083F31188BFF36F8FBFF34F8F3B6000BFD7
:10404000FEE700BF1437BD4680BC7047F0E300E0D8
:10405000781900200CED00E07C19002080B500AF3D
:10406000FCF7BAFA00F00BF800F062F800F0E0F8A4
:10407000FFF7F4FA00F0C2F8FFF712FBFEE780B595
:1040800090B000AF07F1180328220021184600F075
:1040900067FA3B1D00221A605A609A60DA601A6162
:1040A0000123BB614FF48033FB6100233B6201239A
:1040B000BB6202237B634FF48033BB634FF4E01396
:1040C000FB6307F118031846FCF7B8FA0346002B08
:1040D00001D000F028F80F237B600223BB6000238F
:1040E000FB604FF480633B6100237B613B1D022139
:1040F0001846FCF725FD0346002B01D000F013F80D
:1041000000BF4037BD4680BD80B582B000AF78604B
:104110007B681B68B3F1804F01D1FCF773FA00BFD5
:104120000837BD4680BD80B400AF72B600BFFEE761
:1041300080B588B000AF07F1100300221A605A6002
:104140009A60DA602A4B9B69294A43F01003936115
:10415000274B9B6903F01003FB60FB68244B9B69B2
:10416000234A43F020039361214B9B6903F0200312
:10417000BB60BB681E4B9B691D4A43F008039361FB
:104180001B4B9B6903F008037B607B68184B9B69A2
:10419000174A43F004039361154B9B6903F0040332
:1041A0003B603B6800224FF400511248FCF7F6FFD9
:1041B0004FF400533B6101237B610023BB61022369
:1041C000FB6107F1100319460A48FCF763FE4FF440
:1041D00080433B6100237B610023BB6107F1100337
:1041E00019460548FCF756FE00BF2037BD4680BD86
:1041F0000010024000100140000C014080B500AFEB
:10420000044A00210448FFF771FA0346034A136089
:1042100000BF80BDD8450008214200088019002059
:1042200080B582B000AF78600120FFF7F1FAFBE7BC
:1042300080B500AF124B134A1A60114B124A5A60F4
:104240000F4B00229A600E4B0022DA600C4B4FF4A9
:1042500080421A610A4B00225A61094B00229A617E
:10426000074B0022DA61064B00221A620448FDF770
:104270008DF80346002B01D0FFF755FF00BF80BD2E
:104280008419002000540040A086010080B588B049
:1042900000AF786007F1100300221A605A609A603C
:1042A000DA607B681B68154A934223D1144B9B69E3
:1042B000134A43F008039361114B9B6903F0080311
:1042C000FB60FB68C0233B6112237B610323FB611E
:1042D00007F1100319460B48FCF7DCFD084BDB69BE
:1042E000074A43F40013D361054BDB6903F4001361
:1042F000BB60BB6800BF2037BD4680BD0054004096
:1043000000100240000C014080B400AFFEE780B412
:1043100000AFFEE780B400AFFEE780B400AFFEE779
:1043200080B400AFFEE780B400AF00BFBD4680BCE4
:104330007047000080B500AF0248FBF7B9FF00BF2F
:1043400080BD00BFD819002080B584B000AF184BE5
:104350009B69174A43F001039361154B9B6903F076
:104360000103BB60BB68124BDB69114A43F0805309
:10437000D3610F4BDB6903F080537B607B680022C5
:104380000F216FF00100FCF7D6FF0A4B5B68FB6062
:10439000FB6823F0E063FB60FB6843F00073FB60A5
:1043A000044AFB68536000BF1037BD4680BD00BFA4
:1043B000001002400000014080B58EB000AF786070
:1043C0000023FB620023BB62002387F83330344BA9
:1043D000DB69334A43F00103D361314BDB6903F0FE
:1043E0000103FB60FB6807F1100207F1140311469B
:1043F0001846FCF701FD3B6AFB62FB6A002B03D108
:10440000FCF7E6FC786304E0FCF7E2FC03465B00A3
:104410007B637B6B234AA2FB03239B0C013BBB62A8
:10442000214B4FF080421A601F4B40F2E732DA60B6
:104430001D4ABB6A53601C4B00221A611A4B0022B2
:104440009A60194B00229A611748FBF787FE0346D2
:1044500087F8333097F83330002B1BD11248FBF725
:10446000D5FE034687F8333097F83330002B11D14F
:104470001C20FCF77CFF7B680F2B08D80022796892
:104480001C20FCF758FF094A7B68136002E00123F7
:1044900087F8333097F8333018463837BD4680BD3B
:1044A0000010024083DE1B43D819002004000020C6
:1044B000FBF74EFE0B480C490C4A002302E0D4588F
:1044C000C4500433C4188C42F9D3094A094C002360
:1044D00001E013600432A242FBD300F00FF8FFF7B3
:1044E000BDFD7047000000201000002004460008B9
:1044F00010000020201A0020FEE7000070B5002602
:104500000C4D0D4C641BA410A64209D100F030F8EC
:1045100000260A4D0A4C641BA410A64205D170BDAA
:1045200055F8043B98470136EEE755F8043B9847A9
:104530000136F2E7FC450008FC450008FC45000890
:10454000004600080A44914200F1FF3300D1704751
:1045500010B511F8014B914203F8014FF9D110BD8C
:1045600003460244934200D1704703F8011BF9E768
:10457000F8B500BFF8BC08BC9E467047F8B500BF50
:08458000F8BC08BC9E46704720
:1045880049444C4500000000546D72205376630086
:10459800546D72510000000064656661756C745456
:1045A80061736B00000000000000000001020304BA
:1045B80006070809000000000102030402030405BD
:1045C800060708090A0B0C0D0E0F10100102000057
:1045D800A0450008000000000000000000000000E6
:1045E80000000000000200001800000000000000A9
:0445F80000000000BF
:0445FC00350100087D
:04460000110100089C
:1046040000127A001000000001000000AAAAAAAA61
:04000005080044B1FA
:00000001FF
